:1000000010C022C04BC020C01FC01EC01DC01CC0DD
:100010001BC01AC019C018C017C016C015C014C024
:1000200057C011241FBECFE5D2E0DEBFCDBF10E028
:10003000A0E6B0E0E6EFF0E002C005900D92A43635
:10004000B107D9F702D055C0DBCF8AB380628ABB33
:100050008BB3806D8BBB88E18DB98BB780618BBF13
:1000600082B3806882BB81B1826081B980EE86B93B
:1000700087B1807C87B987B1816087B97894349BD8
:10008000FECF85B190E0909363008093620084B1CD
:1000900090E09093610080936000F1CF1F920F92E7
:1000A0000FB60F9211248F93CF9909C08DB1806440
:1000B0008DB980E48EB9809162008FB903C08DB193
:1000C0008F7B8DB98F910F900FBE0F901F90189559
:1000D0001F920F920FB60F9211248F9380916000A0
:1000E0008FB980E48EB98F910F900FBE0F901F9043
:0600F0001895F894FFCF03
:0400F600FF00FF0008
:00000001FF
